:0200000460009A
:100000004643464200000156000000000103030081
:1000100000000000000000000000000000000000E0
:1000200000000000000000000000000000000000D0
:1000300000000000000000000000000000000000C0
:1000400000000000010408000000000000000000A3
:100050000000800000000000000000000000000020
:100060000000000000000000000000000000000090
:100070000000000000000000000000000000000080
:10008000EB04180A063204260000000000000000FD
:10009000050404240000000000000000000000002F
:1000A0000000000000000000000000000000000050
:1000B0000604000000000000000000000000000036
:1000C0000000000000000000000000000000000030
:1000D00020041808000000000000000000000000DC
:1000E0000000000000000000000000000000000010
:1000F0000000000000000000000000000000000000
:10010000D8041808000000000000000000000000F3
:100110000204180804200000000000000000000095
:1001200000000000000000000000000000000000CF
:10013000600400000000000000000000000000005B
:1001400000000000000000000000000000000000AF
:10015000000000000000000000000000000000009F
:10016000000000000000000000000000000000008F
:10017000000000000000000000000000000000007F
:10018000000000000000000000000000000000006F
:10019000000000000000000000000000000000005F
:1001A000000000000000000000000000000000004F
:1001B000000000000000000000000000000000003F
:1001C000000100000010000001000000000000001D
:1001D000000001000000000000000000000000001E
:1001E000000000000000000000000000000000000F
:1001F00000000000000000000000000000000000FF
:10020000FFFFFFFFFFFFFFFFFFFFFFFFFFFFFFFFFE
:10021000FFFFFFFFFFFFFFFFFFFFFFFFFFFFFFFFEE
:10100000D100204325160060000000000000000011
:10101000201000600010006000440160000000002B
:10102000000000600050010000000000FFFFFFFF13
:10103000FFFFFFFFFFFFFFFFFFFFFFFFFFFFFFFFC0
:10104000FFFFFFFFFFFFFFFFFFFFFFFFFFFFFFFFB0
:10105000FFFFFFFFFFFFFFFFFFFFFFFFFFFFFFFFA0
:10106000FFFFFFFFFFFFFFFFFFFFFFFFFFFFFFFF90
:10140000884207D0904205D251F8043B40F8043B93
:101410008242F9D8704700BF884204D2002340F8C6
:10142000043B8142FBD870472DE9884800F0D0F991
:101430000824614B614AC3F8544161496148FFF790
:10144000DFFF614A61496248FFF7DAFF614962489C
:10145000FFF7E2FF614C4FF0E0214FF470000023F2
:101460005F4AC1F8880D44F823200133B02BFAD12C
:101470005C4B80215C4A03F8011B9342FBD14FF087
:10148000E0254D4E4FF08039DFF88CB1DFF88CA1AC
:101490004FF0FF31C5F8084D0027C6F80491C6F893
:1014A00000B1C6F8F490C6F8F0A0D5F8243DDFF8F6
:1014B000708143F4E0234D4AC5F8243DD8F81C3030
:1014C00023F07F0343F04003C8F81C30D8F82430E1
:1014D00023F07F0343F04003C8F824309166D166BF
:1014E0001167516700F07CF9414B4249A363424BBD
:1014F000E36363236B610323AF612B613F4BC5F84B
:10150000203DD5F8FC3D43F08073C5F8FC3D3C4BD5
:101510001A6842F001021A605B680B6000F09EFBE3
:10152000C6F804913748C6F800B1C6F8F490C6F87A
:10153000F0A000F02DFDD8F86C10334B334A41F485
:101540004051C8F86C101F60C3F80871C3F81871D7
:10155000C3F82871C3F83871936BDB0708D442F6DF
:1015600015632B4951651365936B43F00103936336
:10157000264A284C936843F00113936000F0ACF9BD
:1015800000F09AFB00F008FD00F0C0FB00F022F92B
:101590002368132BFCD900F051FC2368B3F5967F28
:1015A000FBD300F01BF900F017F900F0EDFC00F0A0
:1015B000FBFC30BFFDE700BF00800D4028EB0000C2
:1015C000FC21006000000000C0360020280D0160F2
:1015D00000000020C0480020C03600200034002059
:1015E0001D55000000E400E0A0E400E000C00A4057
:1015F00005830000684800200983000000002020C7
:10160000001000E00046C3230040084000400D40A9
:101610000000C0566C4800201B1018200C0D111340
:1016200000C00F40074B4FF42A01074A07485A648D
:101630001864074A99639546BFF34F8FBFF36F8FC6
:10164000FFF7F2FE00C00A40AFAAAAAA07002000D6
:101650000000072043690A4A03EB011010B4037A23
:10166000084C02EB0313D3E901321460C2681A601C
:1016700003690BB142691A605DF8044B704700BF03
:101680007013002061F801004369027E03EB02122F
:1016900092F808C08C451CD01A7AFF2A19D09142C2
:1016A00010B5044616D01A7EFF2A06D00121D3E9D0
:1016B000002312681A4201D1217610BD064B052283
:1016C000204603EB0C135B681A60FFF7C3FF21761B
:1016D000F3E770470021EAE77013002043690A4AE4
:1016E00003EB011010B490F82830084C02EB031300
:1016F000D3E901321460C26A1A60036B0BB1426B0A
:101700001A605DF8044B70477013002061F8010007
:101710004369427E03EB021292F828C08C451ED02A
:1017200093F82820FF2A1AD0914210B5044617D00A
:1017300093F83820FF2A06D00121D3E9002312684C
:101740001A4201D1617610BD064B0522204603EBFB
:101750000C135B681A60FFF7C1FF6176F3E770470F
:101760000021EAE770130020164942698B6B23F4CD
:101770007C0343F4802370B58B630446124DD2E999
:1017800000130A681A4303690A60022200211A61E1
:101790000E4A19619A6401225A629D624FF43035F3
:1017A000DD624FF001159E6C1E6519629D651A6120
:1017B000017EFFF74FFF617E2046BDE87040FFF7D6
:1017C0008DBF00BF00C00F40B80B05053B3728197F
:1017D000704700BF704700BF704700BF00BF704731
:1017E00010B44FF0E023002110242B48C3F8941DBF
:1017F000C3F89C4D1124C3F8A00D2848C3F89C4D94
:101800001224C3F8A00D2648C3F89C4D254AC3F8FE
:10181000A00D254C42F015022448C3F89C4DC3F896
:10182000A00D234C2348C3F89C4DC3F8A00D224CB7
:10183000C3F89C2D2148224AC3F8A04DC3F89C0D43
:10184000C3F8A02D02F5A0221E4C0C321E48C3F88E
:101850009C4DC3F8A02D1D4AC3F89C0D1C4CC3F829
:10186000A02D01221B48C3F89C4DC3F8A00DC3F85E
:10187000942DBFF34F8FBFF36F8FC3F8501FBFF38B
:101880004F8FBFF36F8FD3F8142D5DF8044B42F4E4
:101890004032C3F8142D70473F00001025000803A4
:1018A00009001000C048002013002000210002079A
:1018B0001400002025000813090000101600202045
:1018C00027000B1317000040180000602F000B07C3
:1018D000190000702F000B13F0B5B84B1822B84E4A
:1018E0000120B84F83B0C3F85C62B749C3F8607297
:1018F000B64DC3F86462A6F53046B54CC3F86862CD
:10190000C3F86C52C3F87052C3F87452C3F87852DB
:1019100048F20C75DA661A675A679A67DA67C3F88D
:101920008020C3F88420C3F88820C1F82C03A94A7A
:10193000C1F83003C1F83403C1F83803C1F83C03DF
:10194000C1F85003A169A44B0A40A448A449134319
:10195000A44AA361D4F8843043F00C03C4F8843063
:101960004FF0FF34036843F00203036003682B4029
:101970004FF400551A439C4B026044608A689B4CAC
:1019800013409B4A43F000538360C36823F07803FD
:10199000C360036A134023430362036A1340954AFA
:1019A0002343954C43628262C2620022D1F8B83070
:1019B00023F03F0343F00103C0F8B830D1F8BC3046
:1019C0008E4923F03F0343F00103C0F8BC3040F2DE
:1019D0000563026105660467C0F8803045664467A8
:1019E0000224C0F88430036823F00203036081619D
:1019F000834B8449C46143F8042B8B42FBD1774A63
:101A0000136843F001031360136813F00103FBD163
:101A10007A48022140F2F564906140F29940D16128
:101A200040F26641C2F8004242F20144C2F810128C
:101A30007549C2F82002C2F8301240F235417348AD
:101A4000C2F83442C2F84012714CC2F8500242F25D
:101A500001207049C2F854120121C2F86042C2F854
:101A600064025E48C2F8A030C2F8A430C2F8B010D8
:101A70004369DA07FCD5012300244FF4803257492B
:101A80004361C0F8A040C0F8A420C0F8B0304B6952
:101A9000DB07FCD5012300244FF400304F4A4B6193
:101AA000C1F8A040C1F8A400C1F8B0305369DF0705
:101AB000FCD501230024584848495361C2F8A0408E
:101AC000C2F8A400C2F8B0304B69DE07FCD5D1F8EB
:101AD000003145F60D5221209BB24861934265D1F9
:101AE00000244FF4802201233C48C1F8A040C1F8F3
:101AF000A420C1F8B0304369DD07FCD501234FF4C1
:101B000000040021354A4361C0F8A040C0F8A41089
:101B1000C0F8B0305369DC07FCD501234FF4000452
:101B20004FF480302D495361C2F8A040C2F8A400A0
:101B3000C2F8B0304B69D807FCD501234FF400043C
:101B40004FF40030254A4B61C1F8A040C1F8A40011
:101B5000C1F8B0305369D907FCD501234FF4000414
:101B60002D481E495361C2F8A040C2F8A400C2F833
:101B7000B0304B69DA07FCD5D1F8003145F60D528B
:101B800021209BB24861934250D008254FF40004B5
:101B900022490020224B234A009015705A1A012333
:101BA0002148224400F004FA03B0F0BD1E4B00228D
:101BB000C3E90022C3E9022203B0F0BD00801F4048
:101BC000F9B00100F910010000841F40F970010014
:101BD00000C00F40FFFCFF1F000300A000402A4090
:101BE00000802A401200FFFFFF37F700400000800E
:101BF00000FFF07CFF000F8363000200F05AF05AF0
:101C000000422A4000432A409F041830EB06180A7D
:101C10003806180A0632012604000300000000708E
:101C20000000007093480020784700204FF4000423
:101C30004FF4802201230848C1F8A040C1F8A42035
:101C4000C1F8B0304369DB07FCD5012310254FF004
:101C5000807443619CE700BF00402A40F0B4154AFD
:101C600040274FF480314FF480564FF400554FF425
:101C7000404443F24200136913F0020F0ED113F4F3
:101C8000005F0FD013F4805F0ED0002BF3DA13F453
:101C9000803F0BD15B060BD5F0BC7047946151615E
:101CA0009061E8E75561E6E75661E4E79161E2E7B4
:101CB0005761E0E700800D40104BA020104AD96E1C
:101CC00041F4403110B4D96640F23764D96E41F422
:101CD0004071D96654649064936C1B06FCD4094A25
:101CE00040F23761A02351649364936C13F0800336
:101CF000FBD1054A13705DF8044B704700C00F40DC
:101D000000400C4000800C40924800203F4A0320D5
:101D10003F49F3EE095AD2F880304FF0000C9FEDA6
:101D20003D6A23F001039FED3C5A30B4C2F8803085
:101D3000C2F89000D1F8E010384DCBB2384C394899
:101D40002B6007EE903A0B0DC1F30B21F8EEE77A0A
:101D500006EE903A07EE101A334BB8EEC77A2160C0
:101D6000F8EEE66A314937EEC66A37EEC55A76EEC6
:101D7000C76A77EEE57A26EE266AC3ED006A25EE9D
:101D8000265AD2F8803067EEA64AC0ED007AC6EE39
:101D9000275A274885EE276AC4EEA76A75EE875A48
:101DA000FCEEE55A36EE076A15EE904ABCEEC66ABE
:101DB00043EA045376EE877AC2F8803016EE103A82
:101DC000D2F89041FCEEE77A01EA0341214317EE95
:101DD000903AC2F89011C3F30B03D2F890110B4361
:101DE0001449C2F89031D2F8803043F00203C2F8AF
:101DF0008030114B80F840C0C1F840314FF0E023F3
:101E0000012230BCC3F80821704700BF00810D409B
:101E100000441F400000AA420000B442584800207D
:101E2000544800205C480020604800200000FF0F5C
:101E300000E400E000340020FD640000314B40F677
:101E4000617210B5C3F8202140F2044400F0A8F8F4
:101E50002D4A2E49D2F880302D4843F00303C2F8B2
:101E600080302C4BC1F8604102681A4203D1D1F88E
:101E7000A8319A071BD0254A4FF00041244B5963E3
:101E8000D2F8403143F00203C2F84031D2F8403179
:101E90009B07FBD44FF400304FF0E0211C4B4FF078
:101EA0000042C1F88C0219209A6300F085F8184AA4
:101EB0004FF08040154C002190630A20164B1160B2
:101EC0004FF42072C4F8A801184600F079F84FF4D6
:101ED000800203464FF4810040F243111860C4F8B9
:101EE00058311A640D4B0E4AC4F84811C3F8042245
:101EF0004FF0E0224FF400310123C2F80C11C4F876
:101F0000403110BD00800D4000C00F4000002E4049
:101F100000900D40001C1E00000000200034002036
:101F2000E566000008B50E4B1B6E9B0700D4FBBE98
:101F300072B60C4B00200C4AC3F8400103F1604319
:101F40000A49A3F55F2311649D46BFF34F8F4FF4F9
:101F500000130748074ADB6902609B68984700BF87
:101F600000441F4000002E4000C00A400300200033
:101F700000802020000012EBF8B500BFF8BC08BCC0
:101F80009E467047000000005FF800F07592000068
:101F90005FF800F08D5B00005FF800F0F962000070
:101FA0005FF800F07D6E00005FF800F071590000EE
:101FB0005FF800F0796400005FF800F07D5E0000DB
:101FC0005FF800F0F9900000450000006107000094
:101FD000850D0000C50F00002D7E0000AD7E0000C5
:101FE000317F0000B57F000039800000BD80000017
:081FF00041810000C5810000E1
:101FF80070C00F40C0000000120000001300000075
:10200800D0841F4001000000FF000000FF00000016
:102018000000000000000000130000001300000092
:10202800CC841F4001000000FF000000FF000000FA
:1020380000000000000000001C000000E90C000087
:1020480070C00F40000C00001100000011000000DB
:10205800E0841F40020000002C0000001200000075
:10206800E0841F4001000000100000001100000083
:10207800DC841F40020000002D0000001200000058
:10208800DC841F40010000001E000000F50C000069
:1020980080C00F400000000319000000100000007D
:1020A800E8841F4001000000FF000000FF0000005E
:1020B80000000000000000001800000010000000F0
:1020C800E4841F4001000000FF000000FF00000042
:1020D80000000000000000001F000000010D0000CB
:1020E800160355005300420020005300650072009B
:1020F800690061006C000000180354006500650069
:102108006E00730079006400750069006E006F004E
:102118000403090409026200030100C032080B002D
:102128000202020100090400000102020100052464
:1021380000100105240101010424020605240600FB
:10214800010705820310001009040100020A0000BB
:10215800000705030240000007058402400000094B
:1021680004020002FF6AFF00070581024000010720
:10217800050102400001000009026200030100C0DD
:1021880032080B00020202010009040000010202E9
:1021980001000524001001052401010104240206A0
:1021A8000524060001070582031000050904010043
:1021B800020A000000070503020002000705840266
:1021C8000002000904020002FF6AC7000705810235
:1021D8000002010705010200020100000A060002D0
:1021E800EF020140010000000001010101010101AD
:0421F80001000000E2
:1021FC0000000000000000000000000000000000D3
:10220C0000000000000000000000000000000000C2
:10221C000548064B1B1AD90F01EBA301491002D03C
:10222C00034B03B118477047C0360020C03600205E
:10223C000000000008B5054B1BB105490548AFF37C
:10224C000080BDE80840FFF7E3BF00BF00000000BE
:10225C00F847002000500160F8B57F4F01220A2199
:10226C00F8682DED028B00F005FA0A286FD07B4C34
:10227C0000227B4B84F8502097ED007B93ED046B90
:10228C0037EE067B93ED086B87ED007BB4EEC76BE6
:10229C00F1EE10FA72D5B4F94420216CB4F9463041
:1022AC00A164A4F84C206F490020A4F84E3000F033
:1022BC009FFA6D49012000F09BFA6C4902206C4E8C
:1022CC0000F096FA6B49032000F092FA634800F094
:1022DC002FFB69490020D4E90023C4E90623D4E983
:1022EC000223C4E90823D4E90423C4E90A2305F032
:1022FC0077F86249012005F073F86149022005F076
:10230C006FF86049032005F06BF83D690FCE28602B
:10231C006960AA60EB6003CE286169612821236B98
:10232C007A69AB61636B3869EB61A36B2B62E36B0E
:10233C006B6200F0E1F97869002301222A2180F810
:10234C002930BDEC028BBDE8F84005F083B80921BB
:10235C00424CD7E9022000F0F9F9BA6804F14003C5
:10236C005168106803C33E4B012193F8282084F870
:10237C005010002A80D193ED027B83E793ED008B04
:10238C00BBFE488BB0EE480B00F062F928B100227E
:10239C001346A264A4F84C3085E7B0EE480B00F06D
:1023AC003DF90028F3D1B0EE480B9FED291B08F046
:1023BC006FF9B5EEC00BF1EE10FA33D5B1EE400B60
:1023CC00BCEEC00B10EE103A5B421BB2B0EE480BE9
:1023DC00A4F848309FED1E1B08F05AF9B5EEC00B5F
:1023EC00F1EE10FA2AD5B1EE400BBCEEC00B10EE9C
:1023FC00103A5B42A4F84A30B0EE480B9FED141B28
:10240C0008F046F9B5EEC00BF1EE10FA10D5B1EEAE
:10241C00400BBCEEC00B10EE103A5B421BB2A4F8A2
:10242C004C3040E7BCEEC00B10EE103A1BB2CDE7BF
:10243C00BCEEC00B10EE103A1BB2ABE7BCEEC00BFF
:10244C0010EE103AA4F84A30D6E700BFAFF3008084
:10245C00000000000000F040D83800208038002038
:10246C00881C0020C8380020CA380020CC38002036
:10247C0098380020CE380020B0380020B438002026
:10248C00B8380020BC38002010B508201E4C00F0D5
:10249C0099F80121092008F0C7FA034601210A2006
:1024AC00A36008F0C1FAE06000F0E2F8002000F050
:1024BC006BF9012000F068F9022000F065F90320A7
:1024CC0000F062F900F0E6F9002004F07BFF012037
:1024DC0004F078FF022004F075FF032004F072FF73
:1024EC000121282008F0A0FA034601212A202361AB
:1024FC0008F09AFA606104F0ABFF044BD3E90623B1
:10250C00C4E9002310BD00BFD8380020881C00206F
:10251C0010B5144CA06808F0D7FAE06808F0D4FAAB
:10252C0000F0E8F8002000F099F9012000F096F98D
:10253C00022000F093F9032000F090F900F006FA65
:10254C0004F084FF04F082FF04F080FF04F07EFFAF
:10255C00206908F0B9FA606908F0B6FABDE81040D5
:10256C0004F084BFD83800209FED010B704700BFEA
:10257C00000000000000F07F9FED010A704700BFD3
:10258C000000807F000000009FED010B704700BF32
:10259C00000000000000F0FF9FED010A704700BF33
:1025AC00000080FF000000009FED010B704700BF92
:1025BC00000000000000F8FF9FED010A704700BF0B
:1025CC000000C0FF08B5FFF7EFFF0E4B83ED000BCB
:1025DC00FFF7F2FF0C4B83ED000AFFF7C5FF0B4B27
:1025EC0083ED000BFFF7C8FF094B83ED000AFFF7E3
:1025FC00CBFF084B83ED000BFFF7CEFF064B83EDB3
:10260C00000A08BD0839002020480020F8380020B6
:10261C0018480020003900201C4800200A4B93ED7C
:10262C00007BB4EE407BF1EE10FA0AD0074B93ED31
:10263C00007BB4EE407BF1EE10FA0CBF01200020C1
:10264C0070470120704700BFF83800200039002087
:10265C00064853EC102B984301D000207047C3F36D
:10266C001301114314BF0120002070470000F07FBC
:10267C00704700BF2DE9F047002406460D469246F0
:10268C00DFF86C80194F06F0D5FFA84213D3BAF1CE
:10269C00000F13D02B4632460021384607F042F982
:1026AC006B1E044683421DD0854208BF002406F0F1
:1026BC00C1FFA842EBD22046BDE8F087D8F80090C5
:1026CC005446291B301906F023FF0444A542DAD9DD
:1026DC00D8F80030BA68A3EB09039342F1D3012375
:1026EC003B73D0E700232C463354CCE7E01D00208D
:1026FC006C480020704700BF0144884222D202F18E
:10270C00010C0138012330B54C1E05E01370012378
:10271C0062469C44A0420DD010F8011F5D1CE64699
:10272C000029F3D0EBB20EF8011BFF2B04D0A04212
:10273C00F446F1D1137030BD13700CF1020C7246DB
:10274C000123E7E701231370704700BF30B544182D
:10275C00A04216D20025034613F8011B012911DDF6
:10276C0002F1FF3C084413F801EB83420CF801EF33
:10277C00F9D14B1EFF291A4401D002F8015B8442A7
:10278C00E9D830BD1846F8E7164B012130B513F8DF
:10279C00105083B00446284605F0B8FA124B9FED52
:1027AC00130A012113F814408DED010A204605F09F
:1027BC00ADFA082005F012FF9DED010A284605F040
:1027CC001DFE9DED010A204605F018FE284600214D
:1027DC0005F0AEFD0021204603B0BDE8304005F009
:1027EC00A7BD00BF300E0020380E00200024F44698
:1027FC0038B50D46B1F900100446002916DC154B0E
:10280C004FF0FF0113F8100019D005F091FDB5F948
:10281C000010114B002913F81400B8BF494289B2BB
:10282C00BDE83840C1F1FF0105F082BD0029094B1C
:10283C00B8BF494213F8100089B2C1F1FF0105F08D
:10284C0077FD054BFF2113F81400BDE8384005F067
:10285C006FBD00BF300E0020380E0020074B00214A
:10286C0010B5044613F8100005F062FD044B00216E
:10287C0013F81400BDE8104005F05ABD300E0020CE
:10288C00380E002010B50446203000F0D7FD20464D
:10289C0010BD00BF10B51E481E4C0EF02DFA1E497F
:1028AC001B4800F02BFB0021204604F065FDF8B11D
:1028BC0004F12001204600F0A1FCA0B1002301216D
:1028CC0004F120001A4600F0BBFD012394F86C20A3
:1028DC0004F16801204600F047FD70B1204604F079
:1028EC006DFD78B110BD0D490D4800F077FEFEE787
:1028FC000C490B4800F072FEF9E70B49084800F050
:10290C006DFEF4E70949064800F068FEEFE700BFEA
:10291C00083D002088470020801A0600241800205B
:10292C001818002000180020401800205C18002007
:10293C000146054808B501F1080201F1100304F045
:10294C0035FD00B108BDFEE788470020704700BF89
:10295C0010B5084C04F1200000F05CFD0648002383
:10296C00064AA066204684F86C300549BDE8104044
:10297C0008F054B888470020083D0020B42D0020F2
:10298C00950600000020704790F8A32090F8A20054
:10299C00101A704790F8A23090F8A3209A4205D9EB
:1029AC005A1C034480F8A220987E70474FF0FF30E9
:1029BC00704700BF90F8A23090F8A3209A4202D939
:1029CC001844807E70474FF0FF307047704700BF4F
:1029DC000346B0F8300178B193F82F21882A03D937
:1029EC00012200205A60704702F1010C01201A44A8
:1029FC0083F82FC182F8A510704700BF38B5B0F826
:102A0C0030410CB9204638BD90F82F310546C3F142
:102A1C008904A2420DD8144605F1A500224618449B
:102A2C0004F0DAFD95F82F312046234485F82F3138
:102A3C0038BD01224260EFE738B5002513464FF44C
:102A4C007A720446C0E90152154888222161294650
:102A5C00206004F11A00636125732576657608F011
:102A6C0043FC8922294604F1A50084F8A25084F87D
:102A7C00A35084F8A45008F037FC204684F82E515B
:102A8C0084F82F5184F8305184F8315184F8325144
:102A9C0084F8335184F83451C4E94E5538BD00BF25
:102AAC00D0100020704700BF2DE9F04FD0F814A0D3
:102ABC001524017E8146437E83B00AEB0111384A0E
:102ACC000AEB0313374F097A93F8283002EB011500
:102ADC000901E86852F8018002EB0311D5F804B043
:102AEC001B01CE68D558CBF80040C8F88400D8F844
:102AFC0004304A6803432C490192C8F8043014602E
:102B0C00C5F884606B6833436B60284B4C683A683B
:102B1C00A3FB0232920C02EB820252004B681B1B8D
:102B2C009A42FBD84FF0090C1F4ADFF880E0D8F826
:102B3C000830034202D0AB6833422FD1C5F888600D
:102B4C0054683968AEFB0131890C01EB8101536883
:102B5C001B1B9942FBD8C5F8846054683968AEFBDE
:102B6C000131890C01EB810153681B1B9942FBD885
:102B7C00BCF1010CDBD1604699F81830019A0AEBD4
:102B8C000313DB68CBF8003099F819300AEB031A01
:102B9C00DAF82C30136003B0BDE8F08F0120EBE7BE
:102BAC0070130020DC1D0020001000E083DE1B43AE
:102BBC000E4A10B51168046905E0DB0107D41368EF
:102BCC005B1A102B08D8636913F0007FF5D14FF412
:102BDC00FE430120636110BDFFF766FF0028FAD0A9
:102BEC004FF4FE4301206361F5E700BF6C48002001
:102BFC002DE9F04790F82FA1BAF1000F58D081467B
:102C0C008846FFF7D5FF002852D0374E002437688E
:102C1C0016E06B691A0544D4580558D499044CD461
:102C2C003268D21B322A48D8544507D9EA6D52076C
:102C3C0004D19B0555D4B8F1000F52D007F07CFCA1
:102C4C005445D9F81050E4D8EA6D510702F0070347
:102C5C00DFD413E099F8A5200133022442F48062FA
:102C6C00042B2A6627D08A4503F1010309EB0102E4
:102C7C000ED992F8A520042B2A66CAD00121002C6B
:102C8C00E8D02146013301348A4509EB0102F0D822
:102C9C00B8F1000FBDD04FF400732B666B691A05A9
:102CAC00BAD52B69042043F440732B61BDE8F0873F
:102CBC000420BDE8F0870124ABE72B694FF40072C8
:102CCC00042043F440732B612A66BDE8F0872B691E
:102CDC004FF40072022043F440732B612A66BDE866
:102CEC00F0870020E5E700BF6C4800202DE9F04795
:102CFC0082460C4615461F46FFF75AFF002800F087
:102D0C008F8063000021012DDFF81C81DBB240F2C3
:102D1C00014638BF01250C461E43D8F80090AAF88E
:102D2C00A2101EE09AF8A330872B3DD951690B05F0
:102D3C0057D411F4105F67D1D8F80030A3EB090316
:102D4C00322B61D89AF8A330AB4208D3022C06D9A7
:102D5C00D36D580703D18B0547D4002F45D007F00E
:102D6C00EBFB022CDAF81020DCD8D36D590703F0FA
:102D7C000700D7D421466C1E084444F4807441B932
:102D8C0016660131431A032B01D80229F7D90C46D8
:102D9C00C8E7012931D017B14FF4007313669AF8C4
:102DAC00A3300324872BC1D8D16D11F4E02FC1F3CC
:102DBC00024EBBD0591C9E441933C9B25FFA8EFE29
:102DCC005AFA83F3D2F870C0481C71458AF8A310E4
:102DDC00C1B203F801CFA9D08929F3D151690B05F0
:102DEC00A7D5136943F440731361D36D13F4E02F2B
:102DFC0005D19AF8A300BDE8F0871466C1E7136902
:102E0C0043F400731361F4E713694FF4007143F456
:102E1C00407313611166D36D13F4E02FE9D0EEE724
:102E2C000420BDE8F08700BF6C480020036970B532
:102E3C00D3F81451044615F4706201D0C3F8142170
:102E4C00AE070BD5D3F8701108043ED50022012033
:102E5C0084F8A220224484F8A3009176EA0710D5C6
:102E6C0094F83061F6B194F82E6194F82F21B242A7
:102E7C0027D9721C264484F82E2196F8A520C3F875
:102E8C006021AB050DD594F8A30018B1D4F83C31F2
:102E9C0003B198470023A4F8A230A4F82E3184F88B
:102EAC00303170BDD4F838210AB190472369002223
:102EBC0084F82E21012284F8302194F82F21B2427B
:102ECC00D7D80022C3F86021DBE794F8A320872A27
:102EDC00C4D8501CC0B2BDE70148FFF7A7BF00BF64
:102EEC00083D00200148FFF7A1BF00BF483E00206D
:102EFC000148FFF79BBF00BF883F002010B4144C63
:102F0C0000220369A1421A6114D8124C0120124903
:102F1C004FF430329C6458629962DA629C6C0020E7
:102F2C004FF0011101221C6518625DF8044B996584
:102F3C001A6170470948814207D9094C09480A4966
:102F4C009C645A629862D962E8E7084C0848F6E734
:102F5C007F1A06003B372819B80B05053F420F00B6
:102F6C000A09070460090101007F05001C1A120CF4
:102F7C00100E020210B5094C094922460948FFF708
:102F8C005BFD04F1500208490848FFF755FD04F1B8
:102F9C00A00207490748FFF74FFD10BDF81F00605E
:102FAC0000003F40083D002000803F40483E00208C
:102FBC0000C03F40883F002090F81CC04160BCF12D
:102FCC00020FC26001D18368184707F02FBA00BF07
:102FDC00324B334930B5D3E911542079C8771A6C88
:102FEC0095F804C081F81CC0087752B1B2F5004FB7
:102FFC0023D32C4911442A4A1964D07682F81BC079
:10300C0030BD19680F24D86C8C6540F20134CA614C
:10301C000C614FF47C544C6103210468246883F8E0
:10302C003D10214B9C4226D1037F4260022BC26093
:10303C0026D18368BDE8304018472D68E98B090418
:10304C0022D492B2EA832168EC8BA4B2EC82CC8BB2
:10305C00240405D5CC8BC2F3080204F47E4422432D
:10306C00CA83CA8B92B2CA8200210D4A1964D076E7
:10307C0082F81BC030BD23461146BDE830401847CE
:10308C00BDE8304007F0D2B9E98BC2F3080E92B21A
:10309C0001F47E4141EA0E01E983D4E76439002052
:1030AC0000800E400180FFFFC90D0000324B3349F8
:1030BC0030B5D3E911542079C8771A6C95F804C04F
:1030CC0081F81CC0087752B1B2F5004F23D32C49BC
:1030DC0011442A4A1964D07682F81BC030BD196895
:1030EC000F24D86C8C6540F20134CA610C614FF42A
:1030FC007C544C6103210468246883F83D10214BF7
:10310C009C4226D1037F4260022BC26026D1836889
:10311C00BDE8304018472D68E98B090422D492B2DF
:10312C00EA832168EC8BA4B2EC82CC8B240405D509
:10313C00CC8BC2F3080204F47E442243CA83CA8BAC
:10314C0092B2CA8200210D4A1964D07682F81BC053
:10315C0030BD23461146BDE830401847BDE830402D
:10316C0007F064B9E98BC2F3080E92B201F47E4108
:10317C0041EA0E01E983D4E71439002000800E40A7
:10318C000180FFFFC90D00000023C0E90012C0E957
:10319C000233C0E90433C0E90633C0E90833C0E99F
:1031AC000A33C0E90C3383638387C0E91033C0E969
:1031BC001233704708B5084A08490948FFF7E4FF7D
:1031CC00084A09490948FFF7DFFF094A09490A4833
:1031DC00FFF7DAFF08BD00BF0C10002000003A40DA
:1031EC00143900209C0F002000C0394064390020A5
:1031FC002C0F002000403940B439002038B504466B
:10320C0004200D4607F058FC0346A06108B10120CC
:10321C001D6038BD30B4847F84469DF8085024B1BD
:10322C00012C02D0002030BC70470295DCF80C4019
:10323C00A468A44630BC6047827F034612B1012AC1
:10324C0000D07047DB68DB68184700BF01490248B3
:10325C0000F0C4B9F40E0020240F002008B5436917
:10326C001B681868FFF71EFC012008BD08B54369F0
:10327C001B6818680DF040FD012008BD2DE9F84FC2
:10328C001D4690F8108043694FEA58089DF8287045
:10329C001E68E2B1D9B14FF001093368144608FA3F
:1032AC0009F083F8309183F82F9183F8A5003068EA
:1032BC0003685B689847494681463068FFF798FC7D
:1032CC005FFA89F94C4502D00020BDE8F88F002F39
:1032DC003DD0002D3BD0414601233A463068FFF7E4
:1032EC0005FD013D1FFA87FB80460024DFF8709036
:1032FC00DFF870A01CE090F8A33090F8A220981A88
:10330C0000281DDD306803685B69534522D190F8B5
:10331C00A22090F8A330511C934202441DD980F88E
:10332C00A210907E013405F8010FA4B2A34507D971
:10333C00306803681B694B45DDD098470028E1DCF9
:10334C00A7EB0800B0FA80F04009BDE8F88F012027
:10335C00BDE8F88F9847C0B2E4E7FF20E2E700BF72
:10336C0099070000A5070000F8B5044608200E4692
:10337C0017461D4607F0A0FB606188B100230A4A7E
:10338C000660394603712046A368D3F8BC30E2606E
:10339C00984720742DB1E36820461B68984728464F
:1033AC00F8BD0120F8BD00BF9C2D0020F8B5164CCF
:1033BC000746164D00290369666815482A68A0FB64
:1033CC000202786918BF1846920C00FB02F263687F
:1033DC009B1B9A42FBD8787889B1397904F06CFC44
:1033EC00BC6809490A4B48682A68A3FB0232920C54
:1033FC0004FB02F24B681B1A9A42FBD8F8BD797990
:10340C0004F05AFCFC68ECE7001000E0DC1D002026
:10341C0083DE1B430023C0E90033C0E90233C0E95B
:10342C000433C0E90633C0E90833C0E90A33C0E904
:10343C000C33C0E90E33C0E910337047704700BF3E
:10344C0070B504460E461D460AB1037E8BBB002D9B
:10345C003DD094F83030D3B926B12378002B3BD132
:10346C0005B970BD94F83030002BFAD0002104F16E
:10347C003000FFF79BFF94F83030002BF1D094F81C
:10348C00331094F83100BDE8704004F03FBC94F860
:10349C00310094F8321004F039FC94F8303004F117
:1034AC003000002BD8D00121FFF780FF002ED4D1A3
:1034BC00D8E7817E407E04F029FC237E04F11800BD
:1034CC00002BC4D00021FFF771FF002DC1D1002EBD
:1034DC00C7D02378002BC3D0A178607804F016FCF9
:1034EC002378002BBCD000212046FFF75FFF237808
:1034FC00002BB5D001212046FFF758FF002DB0D08E
:10350C00B0E700BF70B5ADF5027D0D4616460190D3
:10351C0007F0EEFF0446019902A8224604F05CF87D
:10352C0004F10803324629460DEB030007F0C0FEF8
:10353C002044B0F5007F09D802A807F0D9FF014656
:10354C0002A806F0E1F80DF5027D70BD1B210848BC
:10355C0006F0DAF84FF40071064806F0BBF92821A2
:10356C00054806F0D1F8034806F0C0F9E4E700BFBF
:10357C00400E0020E01D00205C0E00200FB400B5B2
:10358C0083B0064804AA52F8041B0192FFF7BAFF55
:10359C0003B05DF804EB04B0704700BF840E00204C
:1035AC0070B505460B4806F0A1F92B7F63B10024DA
:1035BC00094E23462A6801343046D15CFFF7DEFF02
:1035CC002A7FE3B29A42F5D80248BDE8704006F073
:1035DC008DB900BFE01D0020E01600200EB470B5C0
:1035EC0085B00B4E054609AC304654F8041B0191CE
:1035FC0006F07CF92246019928460394FFF782FFD6
:10360C00304606F073F905B0BDE8704003B0704762
:10361C00E01D002006F0ACB8D0E9002393F8290097
:10362C0093F82A10105C084209D193F8331093F8E0
:10363C003430525C1A4214BF012000207047002025
:10364C00704700BFD0E9001393F82E2093F82F3069
:10365C008A5C1A4214BF012000207047D0E9001385
:10366C0093F8292093F82A308A5C1A420CBF012067
:10367C000020704710B5002482B0044B0E21044A80
:10368C00CDE9004401F080FF02B010BDF01D002018
:10369C00BC1E002001F0A8BF00B5002283B00A2197
:1036AC00036800911146FFF7B5FD03B05DF804FB0C
:1036BC000B460C22032102F02FB800BF02F054B8C5
:1036CC0030B587B00B250724059301230094CDE971
:1036DC00031202220021CDE90125062202F07EF917
:1036EC0007B030BD02F050B802F064B80000000022
:1036FC0010B582B04FF0000C0C460C220DF10603F5
:10370C000321ADF806C002F041F9BDF90630B3EE65
:10371C00096B07EE103A9FED084BB8EEC77B9FED97
:10372C00085B37EE447BA7EE056B84ED006B02B0B3
:10373C0010BD00BFAFF300800000000000407540DA
:10374C009A9999999999F13FF0B583B004460F462F
:10375C00002116461D4606220DF10203ADF802109B
:10376C00ADF80410ADF8061002F010F901AB2046CC
:10377C000722012102F00AF90DF1060320460B2263
:10378C00022102F003F9BDF9023005EE103ABDF941
:10379C00043006EE103ABDF90630B8EEC55B07EE04
:1037AC00103AB8EEC66B9FED0A4BB8EEC77B25EE10
:1037BC00045B26EE046B27EE047B87ED005B86ED45
:1037CC00006B85ED007B03B0F0BD00BFAFF3008054
:1037DC004A0C022B8716B93F02F006B802F014B857
:1037EC0002F028B8072908B502D8044A505C08BD75
:1037FC00034A02F081F9002008BD00BFB403002089
:10380C0004060020024908B502F016F9002008BD94
:10381C004C060020024908B502F00EF9002008BD44
:10382C003C060020024908B502F006F9002008BD4C
:10383C004C040020024908B502F0FEF8002008BD37
:10384C0060040020024908B502F0F6F8002008BD1B
:10385C001C040020024908B502F0EEF8002008BD57
:10386C0058060020024908B502F0E6F8002008BD11
:10387C00F4040020024908B502F0DEF8002008BD6F
:10388C0010050020024908B502F0D6F8002008BD4A
:10389C007C040020024908B502F0CEF8002008BDD7
:1038AC0038040020024908B502F0C6F8002008BD13
:1038BC007C060020024908B502F0BEF8002008BDC5
:1038CC0068060020024908B502F0B6F8002008BDD1
:1038DC009C060020024908B502F0AEF8002008BD95
:1038EC0008040020024908B502F0A6F8002008BD23
:1038FC00F4030020024908B502F09EF8002008BD30
:10390C00AC040020024908B502F096F8002008BD6E
:10391C00C0040020024908B502F08EF8002008BD52
:10392C00DC040020024908B502F086F8002008BD2E
:10393C000005002000000000054908B502F07CF8E5
:10394C009FED010B08BD00BF00000000000000004F
:10395C00900400200000000010B52DED068B9FEDAB
:10396C000E8BB0EE41AB1C46B0EE429B80EE080BCA
:10397C0006F0B6FE20808AEE080B06F0B1FE089B1E
:10398C00188089EE080B06F0ABFE099B1880BDEC85
:10399C00068B10BDAFF300804A0C022B8716B93F83
:1039AC000149FFF7FDBD00BF20050020D0E9001341
:1039BC0093F82E2093F82F308A5C1A4214BF012002
:1039CC000020704730B587B00725044605930223C5
:1039DC0000950A9DCDE903120B220021CDE901329D
:1039EC000622012301F0FAFF2B460C22032120466C
:1039FC0007B0BDE8304001F08FBE00BF00B500221B
:103A0C0083B00A21036800911146FFF703FC03B051
:103A1C005DF804FB0000000010B582B00446FFF70F
:103A2C0093FE00210DF106030C22ADF80610204682
:103A3C00032101F0ABFFBDF90630B3EE096B07EEC5
:103A4C00103A049B9FED064BB8EEC77B9FED065BCF
:103A5C0037EE447BA7EE056B83ED006B02B010BD17
:103A6C0000000000004075409A9999999999F13F8E
:103A7C0001EB810310B5446814F803E01C44BEF15B
:103A8C00010F0DD1637894F803C000680A3302FA71
:103A9C000CF2A478C15C4A4022405140C15410BD84
:103AAC00BDE8104001F0F8BF10B504461121012209
:103ABC00FFF7DEFF226892F80CC0D37A917A83EA82
:103ACC000C03507B4B40584001F04EFF1121024635
:103ADC002046FFF7CDFF012010BD00BF436810B595
:103AEC0093F841200446002A36D193F8422000680E
:103AFC0093F84310825C93F844300A401A41D2B2D6
:103B0C0013212046FFF7B4FF636893F846209ABB55
:103B1C0093F84720206893F84810825C93F849305A
:103B2C000A401A41D2B217212046FFF7A1FF636861
:103B3C0093F84B20AAB9206893F84C2093F84D10B9
:103B4C00825C204693F84E300A401B211A41BDE896
:103B5C001040D2B2FFF78CBF0D2101F085FF00227F
:103B6C00CEE720460F2101F07FFF204600221B21CB
:103B7C00BDE81040FFF77CBF0E21204601F074FF1A
:103B8C000022D0E7FFF7AABF10B5044682B0C9B136
:103B9C00012905D00C4A01F0AFFF002002B010BD86
:103BAC00002218212046FFF763FF2046FFF77CFF19
:103BBC002168002304220A3120460093FFF72AFBD8
:103BCC0002B010BD0122ECE720060020072930B519
:103BDC0083B003D90024204603B030BD0D4B0446FE
:103BEC000D4A5D5C525C1221FFF742FF2046FFF745
:103BFC005BFF2168002304220A3120460093FFF763
:103C0C0009FB0346204629461C4601F013FF2046BB
:103C1C0003B030BDB4030020C803002010B5044627
:103C2C0082B000221421FFF723FF2046FFF73CFF50
:103C3C002168002304220A3120460093FFF7EAFA98
:103C4C0002B010BD10B5044682B001221421FFF75A
:103C5C000FFF2046FFF728FF2168002304220A31BA
:103C6C0020460093FFF7D6FA02B010BD114B01EBC2
:103C7C00410130B503EB4105044683B013F8112024
:103C8C001521FFF7F5FE6A7820461621FFF7F0FEA6
:103C9C00AA7819212046FFF7EBFE2046FFF704FF18
:103CAC002168002304220A3120460093FFF7B2FA60
:103CBC0003B030BDD4030020F0B5002283B00A2736
:103CCC0004461146002600970368FFF7A3FA236801
:103CDC0005462046C3F80A60FFF700FF01221A21AF
:103CEC002046FFF7C5FE2046FFF7DEFE216833466F
:103CFC000422394420460096FFF78CFA0421054033
:103D0C002046FFF7B3FF2046FFF7CEFE216833466F
:103D1C000422394420460096EDB2FFF77BFA0246A6
:103D2C00009720461540236832463146FFF772FA59
:103D3C00284003B0F0BD00BF026800231374026872
:103D4C0053740268D374704710B5012182B00024FB
:103D5C00044B054ACDE90014172101F015FC02B003
:103D6C0010BD00BF481F00201420002001F03CBCF7
:103D7C0001F048BC01F066BC0B460622032101F0A1
:103D8C00D7BE00BF01F0F0BC30B587B008250524C4
:103D9C00059301230094CDE9031202220021CDE901
:103DAC000125042201F0C6FE07B030BD01F0ECBCC9
:103DBC0001F000BD0B460622032101F0C9BE00BF75
:103DCC0001F012BD30B587B00825052405930123F9
:103DDC000094CDE9031202220021CDE90125042231
:103DEC0001F0E2FE07B030BD01F00EBD01F022BDC6
:103DFC0010B50C4682B0152311221021009401F04D
:103E0C005DFF02B010BD00BF0B461522122101F060
:103E1C0077BF00BF10B5152482B000231322CDE963
:103E2C000041012101F08CFF02B010BD1A231922B0
:103E3C00152101F0B5BF00BF0B461622172101F06A
:103E4C00EFBF00BF10B5012482B01C23162218212D
:103E5C00009402F077FA02B010BD00BF00231622C6
:103E6C00192102F003B800BF01231622192101F019
:103E7C00FDBF00BF002316221A2102F00FB800BFAD
:103E8C00012316221A2102F009B800BF0B46162294
:103E9C001B2102F01BB800BF0B461C22162102F09E
:103EAC0055B800BF0E230D221B2102F0C9B800BF6C
:103EBC0002F0F2B8024908B501F0BEFD002008BDC1
:103ECC00F4040020024908B501F0B6FD002008BD3D
:103EDC0010050020024908B501F0AEFD002008BD18
:103EEC007C040020024908B501F0A6FD002008BDA5
:103EFC0038040020024908B501F09EFD002008BDE1
:103F0C007C060020024908B501F096FD002008BD92
:103F1C0068060020024908B501F08EFD002008BD9E
:103F2C009C060020024908B501F086FD002008BD62
:103F3C00DC040020024908B501F07EFD002008BD1C
:103F4C00000500201C22162102F0E2B9052102F026
:103F5C0013BA00BF152102F023BA00BF0A2102F0E8
:103F6C005DBA00BF092102F061BA00BF0B2102F05B
:103F7C0071BA00BF0C2102F075BA00BF02F07ABA18
:103F8C0002F0BABA00231322012102F085BA00BF55
:103F9C000149FFF705BB00BFAC06002030B587B068
:103FAC00052504460593022300950A9DCDE90312CD
:103FBC0008220021CDE901320422012301F0F4FD95
:103FCC002B4606220321204607B0BDE8304001F005
:103FDC00BFBD00BF30B587B005250446059302234D
:103FEC0000950A9DCDE9031208220021CDE901328A
:103FFC000422012301F09EFD2B46062203212046BC
:10400C0007B0BDE8304001F093BD00BF02684FF02F
:10401C00010C8021002382F810C0026851740268E0
:10402C00D374026813750268D375704710B50221FA
:10403C0082B00024044B054ACDE90014172101F08D
:10404C00A3FA02B010BD00BFB02000207C210020DC
:10405C0001F0CABA01F0D6BA01F0F4BA0B46062246
:10406C00032101F065BD00BF01F07EBB30B587B008
:10407C0008250524059301230094CDE9031202229F
:10408C000021CDE90125042201F054FD07B030BD1B
:10409C0001F07ABB01F08EBB0B460622032101F026
:1040AC0057BD00BF01F0A0BB30B587B00825052473
:1040BC00059301230094CDE9031202220021CDE9DE
:1040CC000125042201F070FD07B030BD01F09CBB4E
:1040DC0001F0B0BB10B50C4682B015231122102193
:1040EC00009401F0EBFD02B010BD00BF0B46152291
:1040FC00122101F005BE00BF022930B583B014D8DF
:10410C000B461149114A0446CD5C2021D35C2A464A
:10411C00019301F0D7FB019B15221321204601F0DE
:10412C0097FD40B9002003B030BD094A01F0E4FC12
:10413C00002003B030BD2B4615221D21204603B0B4
:10414C00BDE8304001F084BDA403002080030020B2
:10415C000C0900201A231922152101F021BE00BFE1
:10416C000B461622172101F05BBE00BF10B50124CF
:10417C0082B01C2316221821009402F0E3F802B03E
:10418C0010BD00BF00231622192101F06FBE00BF25
:10419C0001231622192101F069BE00BF002316224B
:1041AC001A2101F07BBE00BF012316221A2101F057
:1041BC0075BE00BF0B4616221B2101F087BE00BF47
:1041CC000B461C22162101F0C1BE00BF0E230D228E
:1041DC001B2101F035BF00BF01F05EBF024908B5DD
:1041EC0001F02AFC002008BDF4040020024908B5A7
:1041FC0001F022FC002008BD10050020024908B582
:10420C0001F01AFC002008BD7C040020024908B50E
:10421C0001F012FC002008BD38040020024908B54A
:10422C0001F00AFC002008BD7C060020024908B5FC
:10423C0001F002FC002008BD68060020024908B508
:10424C0001F0FAFB002008BD9C060020024908B5CD
:10425C0001F0F2FB002008BDDC040020024908B587
:10426C0001F0EAFB002008BD000500201C221621ED
:10427C0002F04EB8052102F07FB800BF152102F004
:10428C008FB800BF0A2102F0C9B800BF092102F0A3
:10429C00CDB800BF0B2102F0DDB800BF0C2102F03D
:1042AC00E1B800BF02F0E6B802F026B920231322D1
:1042BC00022102F0F1B800BF0149FFF771B900BF4C
:1042CC002008002030B587B005250446059302234D
:1042DC0000950A9DCDE9031208220021CDE9013297
:1042EC000422012301F060FC2B4606220321204608
:1042FC0007B0BDE8304001F02BBC00BF30B587B033
:10430C00052504460593022300950A9DCDE9031269
:10431C0008220021CDE901320422012301F00AFC1C
:10432C002B4606220321204607B0BDE8304001F0A1
:10433C00FFBB00BF0120704710B4802304687F21AD
:10434C003822E3714FF0010C046821720468637227
:10435C000468A1720468E3720468217301684A73EB
:10436C0001688A730168CA730022016881F810C061
:10437C0001684B740368DA745DF8044B704700BF36
:10438C0010B5032182B00024044B054ACDE900147A
:10439C00172101F0F9F802B010BD00BF2422002053
:1043AC00F022002001F020B901F02CB901F04AB93B
:1043BC000B460622032101F0BBBB00BF01F0D4B9B0
:1043CC0030B587B008250524059301230094CDE969
:1043DC00031202220021CDE90125042201F0AAFBDF
:1043EC0007B030BD01F0D0B901F0E4B90B4606229C
:1043FC00032101F0ADBB00BF01F0F6B930B587B0B9
:10440C0008250524059301230094CDE9031202220B
:10441C000021CDE90125042201F0C6FB07B030BD17
:10442C0001F0F2B901F006BA10B50C4682B02523A2
:10443C0021222021009401F041FC02B010BD00BFEC
:10444C000B462522222101F05BBC00BF10B52524B0
:10445C0082B000232322CDE90041012101F070FC40
:10446C0002B010BD2A232922252101F099BC00BFDE
:10447C000B462622272101F0D3BC00BF10B5012426
:10448C0082B02C2326222821009401F05BFF02B07D
:10449C0010BD00BF00232622292101F0E7BC00BF7C
:1044AC0001232622292101F0E1BC00BF0023262292
:1044BC002A2101F0F3BC00BF012326222A2101F09E
:1044CC00EDBC00BF0B4626222B2101F0FFBC00BF28
:1044DC000B462C22262101F075BD00BF0E230D22A8
:1044EC002B2101F0ADBD00BF01F0D6BD162101F0AE
:1044FC00E3BD00BF252317221A2101F01BBE00BF0C
:10450C002522172101F04EBE30B591B01E25BDF904
:10451C0050400C9314230D941B240995CDE90A12D9
:10452C0015211F2208911321CDE9041418241121FF
:10453C00CDE90632CDE900141C22BDF954401223FA
:10454C0025210E94BDF95840CDE9023219231022D1
:10455C000F9401F06BFE11B030BD00BF10B52323DA
:10456C008EB0002401211E22CDE90B3415241F230B
:10457C00CDE9092114211B22CDE9073413241C2376
:10458C00CDE9052112211822CDE903341124192378
:10459C00CDE9012110222521009402F00DF80EB076
:1045AC0010BD00BF024908B501F046FA002008BD55
:1045BC009C060020024908B501F03EFA002008BD17
:1045CC00DC040020024908B501F036FA002008BDD1
:1045DC00000500202C22262101F09ABE052101F0B5
:1045EC00CBBE00BF252101F0EDBE00BF0A2101F0BA
:1045FC0015BF00BF092101F019BF00BF0B2101F04D
:10460C0029BF00BF0C2101F02DBF00BF01F032BF4C
:10461C0001F072BF00232322012101F03DBF00BF36
:10462C000149FEF7BDBF00BF2809002030B587B097
:10463C00052504460593022300950A9DCDE9031236
:10464C0008220021CDE901320422012301F0ACFA49
:10465C002B4606220321204607B0BDE8304001F06E
:10466C0077BA00BF30B587B0052504460593022301
:10467C0000950A9DCDE9031208220021CDE90132F3
:10468C000422012301F056FA2B4606220321204670
:10469C0007B0BDE8304001F04BBA00BF01207047B5
:1046AC0010B44FF0620C046800217F2284F80AC019
:1046BC0080230468E17204682273046863730468DD
:1046CC00A2730468E37304682274CC2204686374D4
:1046DC0003689A742C220368DA740368D9765DF83F
:1046EC00044B704710B5062182B00024044B054AD8
:1046FC00CDE900141B2100F047FF02B010BD00BF34
:10470C00DC230020A824002000F06EBF332102F02F
:10471C0037B800BF00F096BF0B460822072102F005
:10472C004BB800BF01F020B830B587B00625042483
:10473C00059303230094CDE9031205220021CDE952
:10474C000125022202F03AF807B030BD01F01CB886
:10475C0001F030B80B460822072102F03DB800BF2B
:10476C0001F042B810B588B00824CDE90512072233
:10477C00062107930323CDE9032405220424CDE964
:10478C00012102220021009402F052F808B010BD61
:10479C0001F03AB801F04EB80B463322182102F062
:1047AC0077B900BF0A46152102F0A0B90B461A22B0
:1047BC001B2102F0B3B900BF38B504460122112108
:1047CC0001F080F820460122122101F07BF82046EE
:1047DC000122132101F076F820460222152101F066
:1047EC0071F801222046162101F06CF811212046A7
:1047FC0001F09CF8002205461821204601F062F8D1
:10480C001821204601F092F82843C0B238BD00BFF1
:10481C000A46002102F0A6B90122162102F0AAB91B
:10482C000022132102F0B2B90122132102F0AEB919
:10483C000022122102F0B6B90122122102F0B2B903
:10484C000A46112102F0BAB90A46192102F0D6B96A
:10485C000A2102F0EBB900BF02F0F0B9142102F00A
:10486C00F1B900BF26232722142102F0E5BB00BFBB
:10487C0010B5262482B0272314221221009402F0B2
:10488C00AFFB02B010BD00BF30B593B02124202582
:10489C000C9129210A9509911E21CDE90D23242380
:1048AC00BDF9582006911C210F922822CDE907341E
:1048BC0025231F240B92232205932223CDE90334B5
:1048CC001D2426230094BDF95C40CDE901211094F0
:1048DC002722BDF960401421119402F049FA13B05B
:1048EC0030BD00BF10B51B218EB01A242822202306
:1048FC00CDE90C1429242121CDE90A32CDE9081483
:10490C0024221E2325241F21CDE90632CDE90414CF
:10491C0022221C2323241D21CDE90232CDE90014CF
:10492C0026232722142102F09BFA0EB010BD00BFE3
:10493C0010B504462A21012200F0C4FF20462B2189
:10494C00BDE8104002F0ACB9024908B501F0BCF862
:10495C00002008BD08040020024908B501F0B4F895
:10496C00002008BDF4030020024908B501F0ACF8A2
:10497C00002008BD9C0A0020024908B501F0A4F8EB
:10498C00002008BDAC040020024908B501F09CF8D9
:10499C00002008BDC0040020024908B501F094F8BD
:1049AC00002008BDBC0A0020102102F09FBB00BFF4
:1049BC000E2102F0A3BB00BF0B2102F0A7BB00BF6E
:1049CC0002F0ACBB02F0E4BB1A231B22022102F062
:1049DC00B7BB00BF0149FEF7E3BD00BFCC0A002006
:1049EC0030B587B0042504460593052300950A9D30
:1049FC00CDE9031206220021CDE901320222032364
:104A0C0001F0DCFE2B4608220721204607B0BDE84A
:104A1C00304001F0D1BE00BFF0B589B008260725A3
:104A2C000446079306230E9F02930423CDE9051237
:104A3C0005220021CDE90032CDE9035603230222E1
:104A4C0001F0F6FE3B4632462946204609B0BDE849
:104A5C00F04001F0C1BE00BF0120704710B44FF010
:104A6C00620C046800217F2284F80AC08023046849
:104A7C00E17204682273046863730468A2730468A7
:104A8C00E37304682274CC220468637403689A7418
:104A9C002C220368DA740368D9765DF8044B7047EE
:104AAC0010B5072182B00124044B054ACDE900144E
:104ABC001B2100F069FD02B010BD00BFAC25002029
:104ACC007826002000F090BD302101F059BE00BFC7
:104ADC00302101F063BE00BF0B460722062101F016
:104AEC006BBE00BF00F040BE30B587B00525032477
:104AFC00059302230094CDE9031204220021CDE991
:104B0C000125012201F05AFE07B030BD00F03CBE79
:104B1C0000F050BE0B460722062101F05DBE00BF1F
:104B2C0000F062BE10B588B00724CDE9051206224C
:104B3C00052107930223CDE9032404220324CDE9A4
:104B4C00012101220021009401F072FE08B010BD79
:104B5C0000F05ABE00F06EBE70B50C46A1F1070114
:104B6C000546B1FA81F149098900FEF765FB234638
:104B7C00284630221521BDE8704001F089BF00BFE6
:104B8C000B461722182101F0C9BF00BF38B50546E6
:104B9C000122112100F096FE1021284600F0C6FEDD
:104BAC00012204462721284600F08CFE27212846A6
:104BBC0000F0BCFE2040C0B238BD00BF024908B5B1
:104BCC0000F03AFF002008BDA80C0020024908B5EF
:104BDC0000F032FF002008BD800C0020024908B50F
:104BEC0000F02AFF002008BD60040020024908B52F
:104BFC0000F022FF002008BD1C040020002211211F
:104C0C0001F0D0BF0122112101F0CCBF0A461021C6
:104C1C0001F0D4BF0A46162101F0F0BF092102F0C1
:104C2C0005B800BF02F00AB8122102F00BB800BFA1
:104C3C0023232422122102F0FFB900BF10B5232434
:104C4C0082B0242312221121009402F0C9F902B07F
:104C5C0010BD00BF30B593B01E241D250C9126212C
:104C6C000A9509911B21CDE90D232123BDF958206B
:104C7C00069119210F922522CDE9073422231C24F9
:104C8C000B92202205931F23CDE903341A242323EE
:104C9C000094BDF95C40CDE9012110942422BDF9AA
:104CAC0060401221119402F063F813B030BD00BFC4
:104CBC0010B518218EB0172425221D23CDE90C1414
:104CCC0026241E21CDE90A32CDE9081421221B230A
:104CDC0022241C21CDE90632CDE904141F2219230C
:104CEC0020241A21CDE90232CDE9001423232422F9
:104CFC00122102F0B5F80EB010BD00BF10B504467D
:104D0C002721012200F0DEFD20462821BDE81040BD
:104D1C0001F0C6BF024908B500F0D6FE002008BD60
:104D2C0008040020024908B500F0CEFE002008BDA2
:104D3C00F4030020024908B500F0C6FE002008BDAF
:104D4C009C0A0020024908B500F0BEFE002008BDF8
:104D5C00AC040020024908B500F0B6FE002008BDE6
:104D6C00C0040020024908B500F0AEFE002008BDCA
:104D7C00BC0A0020024908B500F0A6FE002008BDC0
:104D8C00940C00200F2102F0B1B900BF0D2102F0EC
:104D9C00B5B900BF0A2102F0B9B900BF02F0F8B9E9
:104DAC0017231822022102F0CBB900BF0149FEF7EC
:104DBC00F7BB00BFCC0A0020052901D100207047A9
:104DCC000A46132101F092BE30B587B00325044684
:104DDC000593042300950A9DCDE9031205220021B9
:104DEC00CDE901320122022301F0E8FC2B46072217
:104DFC000621204607B0BDE8304001F0DDBC00BF05
:104E0C00F0B589B0072606250446079305230E9FA7
:104E1C0002930323CDE9051204220021CDE90032CF
:104E2C00CDE903560223012201F002FD3B46324636
:104E3C002946204609B0BDE8F04001F0CDBC00BFCA
:104E4C000120704710B4802304687F213822E3715D
:104E5C004FF0010C04682172046863720468A1723B
:104E6C000468E3720468217301684A7301688A73E9
:104E7C000168CA730022016881F810C001684B7484
:104E8C000368DA745DF8044B704700BF10B5042159
:104E9C0082B00024044B054ACDE90014172100F020
:104EAC0073FB02B010BD00BF702700203C2800200F
:104EBC0000F09ABB00F0A6BB00F0C4BB0B46062268
:104ECC00032100F035BE00BF00F04EBC30B587B0FA
:104EDC0008250524059301230094CDE90312022231
:104EEC000021CDE90125042200F024FE07B030BDDD
:104EFC0000F04ABC00F05EBC0B460622032100F019
:104F0C0027BE00BF00F070BC30B587B00825052463
:104F1C00059301230094CDE9031202220021CDE96F
:104F2C000125042200F040FE07B030BD00F06CBC3F
:104F3C0000F080BC10B50C4682B025232122202124
:104F4C00009400F0BBFE02B010BD00BF0B46252242
:104F5C00222100F0D5BE00BF10B5252482B000235D
:104F6C002322CDE90041012100F0EAFE02B010BD80
:104F7C002A232922252100F013BF00BF0B4626222D
:104F8C00272100F04DBF00BF10B5012482B02C23A7
:104F9C0026222821009401F0D5F902B010BD00BFE3
:104FAC0000232622292100F061BF00BF0123262205
:104FBC00292100F05BBF00BF002326222A2100F02C
:104FCC006DBF00BF012326222A2100F067BF00BF5E
:104FDC000B4626222B2100F079BF00BF0B462C225A
:104FEC00262100F0EFBF00BF0E230D222B2101F074
:104FFC0027B800BF01F050B8162101F05DB800BF12
:10500C00252317221A2101F095B800BF252217215C
:10501C0001F0C8B830B591B01E25BDF950400C93C5
:10502C0014230D941B240995CDE90A1215211F2276
:10503C0008911321CDE9041418241121CDE906326D
:10504C00CDE900141C22BDF95440122325210E94E5
:10505C00BDF95840CDE90232192310220F9401F00A
:10506C00E5F811B030BD00BF10B523238EB000247D
:10507C0001211E22CDE90B3415241F23CDE9092172
:10508C0014211B22CDE9073413241C23CDE905215F
:10509C0012211822CDE9033411241923CDE9012161
:1050AC0010222521009401F087FA0EB010BD00BF2C
:1050BC00024908B500F0C0FC002008BD9C06002089
:1050CC00024908B500F0B8FC002008BDDC04002043
:1050DC00024908B500F0B0FC002008BD0005002016
:1050EC002C22262101F014B9052101F045B900BF8D
:1050FC00252101F067B900BF0A2101F08FB900BF6B
:10510C00092101F093B900BF0B2101F0A3B900BF35
:10511C000C2101F0A7B900BF01F0ACB901F0ECB95A
:10512C0000232322012101F0B7B900BF0149FEF78A
:10513C0037BA00BF2809002030B587B005250446D2
:10514C000593022300950A9DCDE903120822002144
:10515C00CDE901320422012300F026FD2B46062264
:10516C000321204607B0BDE8304000F0F1BC00BF81
:10517C0030B587B0052504460593022300950A9D9A
:10518C00CDE9031208220021CDE9013204220123CA
:10519C0000F0D0FC2B4606220321204607B0BDE8C8
:1051AC00304000F0C5BC00BF0120704710B4802314
:1051BC0004687F213822E3714FF0010C04682172DE
:1051CC00046863720468A1720468E3720468217352
:1051DC0001684A7301688A730168CA730022016806
:1051EC0081F810C001684B740368DA7403681A758F
:1051FC000368DA755DF8044B704700BF10B50521E4
:10520C0082B00024044B054ACDE90014172100F0AC
:10521C00BBF902B010BD00BF28290020F4290020E2
:10522C0000F0E2B900F0EEB900F00CBA0B46062221
:10523C00032100F07DBC00BF00F096BA30B587B0FA
:10524C0008250524059301230094CDE903120222BD
:10525C000021CDE90125042200F06CFC07B030BD23
:10526C0000F092BA00F0A6BA0B460622032100F019
:10527C006FBC00BF00F0B8BA30B587B00825052464
:10528C00059301230094CDE9031202220021CDE9FC
:10529C000125042200F088FC07B030BD00F0B4BA40
:1052AC0000F0C8BA10B50C4682B023231F221E2171
:1052BC00009400F003FD02B010BD00BF0B4623228A
:1052CC00202100F01DBD00BF022930B583B014D8D9
:1052DC000B461149114A0446CD5C2E21D35C2A465B
:1052EC00019300F0EFFA019B23222121204600F0CC
:1052FC00AFFC40B9002003B030BD094A00F0FCFB04
:10530C00002003B030BD2B4623222B21204603B0B6
:10531C00BDE8304000F09CBCAC030020A80300208A
:10532C000C09002028232722232100F039BD00BFBF
:10533C000B462422252100F073BD00BF10B50124BB
:10534C0082B02A2324222621009400F0FBFF02B015
:10535C0010BD00BF00232422272100F087BD00BF11
:10536C0001232422272100F081BD00BF0023242229
:10537C00282100F093BD00BF01232422282100F036
:10538C008DBD00BF0B462422292100F09FBD00BF1C
:10539C000B462A22242100F015BE00BF0E230D223D
:1053AC00292100F04DBE00BF00F076BE162100F0A2
:1053BC0083BE00BF2322172100F0F4BE30B591B09C
:1053CC001C25BDF950400C9314230D941A240995F7
:1053DC00CDE90A1215211D2208911321CDE90414DF
:1053EC0018241121CDE90632CDE900141B22BDF998
:1053FC005440122323210E94BDF95840CDE90232BA
:10540C00192310220F9400F011FF11B030BD00BF12
:10541C0010B521238EB02E2402211C22CDE90B3491
:10542C0015241D23CDE9092114211A22CDE90734B5
:10543C0013241B23CDE9052112211822CDE90334B5
:10544C0011241923CDE9012110222321009401F00C
:10545C00B3F80EB010BD00BF024908B500F0ECFA6D
:10546C00002008BD9C060020024908B500F0E4FAB3
:10547C00002008BDDC040020024908B500F0DCFA6D
:10548C00002008BD000500202A22242100F040BF86
:10549C00052100F071BF00BF232100F093BF00BFB6
:1054AC000A2100F0BBBF00BF092100F0BFBF00BF45
:1054BC000B2100F0CFBF00BF0C2100F0D3BF00BF09
:1054CC0000F0D8BF01F018B82E232122022100F0E1
:1054DC00E3BF00BF0149FEF763B800BFB80C002062
:1054EC0010B504461721012200F0ECF9A368204600
:1054FC00D3F89C30984723210246204600F0E2F96D
:10550C00204600F0E1FD28B1A36820469B68BDE869
:10551C001040184710BD00BF30B587B005250446B4
:10552C000593022300950A9DCDE903120822002160
:10553C00CDE901320422012300F0FCFA2B460622AD
:10554C000321204607B0BDE8304000F0F1BA00BF9F
:10555C0030B587B0052504460593022300950A9DB6
:10556C00CDE9031208220021CDE9013204220123E6
:10557C0000F01AFB2B4606220321204607B0BDE89B
:10558C00304000F0E5BA00BF2DE9F0470E46044666
:10559C000121904630461F469DF820A09DF824908E
:1055AC0005F042FA206090B10023267784F81DA004
:1055BC00204684F81E90D7F8B820C4F80480C4E9BB
:1055CC000273C4E9053390470120BDE8F087054616
:1055DC0003490448FEF702F8FEF71CF82846F4E7E6
:1055EC00401900201818002010B50446006818B1A6
:1055FC0005F06AFA0023236000230120E360C4E96C
:10560C00053310BD10B50022037F82B0044611464D
:10561C0000930368FDF7FEFD217F01290ED9236855
:10562C000239013353FA81F103E08B4203F1010398
:10563C0004D01A78FF2AF8D002B010BD002002B0B6
:10564C0010BD00BF2DE9F04184B004460B2590F845
:10565C001C80036802AF08F10700424619467B60C4
:10566C0000F4FC70ADEB000D02AE304601F0B4FF5F
:10567C007B6800222046CDF800801146FDF7CAFD5C
:10568C00227F86462068012A1CD9A2F1020C411CFB
:10569C00034651FA8CFC01E0634513D013F8011F4B
:1056AC00FF29F9D0BEF1000F0CD0A36820461B6F68
:1056BC00984728B1A3682046D3F8A0309847D8B9AA
:1056CC002068227F013D314601F086FF15F0FF0571
:1056DC0003D0236894F81C80CBE7A36820461B6F8B
:1056EC00984748B9637F072B0BD8074A52F82320F9
:1056FC0006490748FDF772FF01200837BD46BDE893
:10570C00F081044AF4E700BF8403002078190020DC
:10571C00181800205819002030B501EB810102EB5C
:10572C008202D0E9004568182A44417890F804E0D8
:10573C00615C90F803C0807801400CEB0E00C0F166
:10574C00100081401079704409B2C0F11000014181
:10575C00198050789578205CD47800EA05022241B3
:10576C001143198030BD00BF836870B5DB680546F6
:10577C000E469847044620B1AB68314628461B6953
:10578C009847204670BD00BF2DE9F04198468368CC
:10579C0005460E46DB6817469847044630B131463D
:1057AC00AE68284643463A46B569A8472046BDE848
:1057BC00F08100BF2DE9F0419846836882B0054620
:1057CC00DB680E4617469847044640B1089B3146A5
:1057DC0028463A4600934346AE68356AA8472046A9
:1057EC0002B0BDE8F08100BF836870B5DB68054688
:1057FC000E469847044620B1AB68314628469B6A52
:10580C009847204670BD00BF2DE9F041984683684B
:10581C0005460E46DB6817469847044630B13146BC
:10582C00AE68284643463A46356BA8472046BDE845
:10583C00F08100BF2DE9F0419846836882B005469F
:10584C00DB680E4617469847044640B1089B314624
:10585C0028463A4600934346AE68B56BA8472046A7
:10586C0002B0BDE8F08100BF426808B501EB8103CE
:10587C0002EB030CD35C13F0FD0F0BD19CF8011061
:10588C0000689CF80220405C9CF8033010401841E2
:10589C00C0B208BD437F072B09D8064A52F8233003
:1058AC000A4605480549FDF799FE002008BD044B42
:1058BC00F6E700BF8403002018180020A819002068
:1058CC0058190020436800B501EB810E13F80EC087
:1058DC0073440CF1FF3CBCF1010F10D893F801C0DC
:1058EC0093F803E0006802FA0EF29B7810F80C10A3
:1058FC004A401A40514000F80C105DF804FB437FFD
:10590C00072B09D8054A52F823300A4604480549A2
:10591C005DF804EBFDF762BE034BF6E78403002051
:10592C0018180020DC1900205819002001EB810107
:10593C00426802EB010C525C013A012A01D90020A9
:10594C00704700B5016885B09CF8012000238DF8E4
:10595C000C20895C022200938DF80D1003A9FDF731
:10596C0059FC05B05DF804FB80EA101080EA900049
:10597C0080EA500000F00100704700BFC04300F007
:10598C000100704700F00100704700BF30B501EB1B
:10599C00810102EB8202D0E9004568182A44417863
:1059AC0090F804E0615C90F803C0807801400CEB47
:1059BC000E00C0F1100081401079704409B2C0F1A2
:1059CC0010000141198050789578205CD47800EA59
:1059DC00050222411143198030BD00BF2DE9F0476B
:1059EC0004461D469DF820909DF824609DF8287073
:1059FC00DDF83480DDE90B3AFFF7C8FF4A46534621
:105A0C0029462046FFF7C2FF43463A463146204618
:105A1C00BDE8F047FFF7BABF437F072B03D8034A13
:105A2C0052F8230070470248704700BF84030020DF
:105A3C005819002001747047437F0A46072B06D87B
:105A4C000549064851F823300549FDF7C7BD054BFC
:105A5C0003490248FDF7C2BD84030020240F002037
:105A6C00AC1B002058190020437F0A46072B06D890
:105A7C000549064851F823300549FDF7AFBD054BE4
:105A8C0003490248FDF7AABD840300201818002022
:105A9C00A819002058190020437F0A46072B06D866
:105AAC000549064851F823300549FDF797BD054BCC
:105ABC0003490248FDF792BD84030020181800200A
:105ACC00DC19002058190020437F0A46072B06D802
:105ADC000549064851F823300549FDF77FBD054BB4
:105AEC0003490248FDF77ABD8403002018180020F2
:105AFC00101A00205819002010B5407F82B01346B0
:105B0C0007280AD8064A52F820400A460548064992
:105B1C000094FDF763FD02B010BD044CF5E700BF27
:105B2C008403002018180020441A00205819002063
:105B3C00FFF7F2BD10B49DF8044001949DF80840A5
:105B4C0002949DF80C4003945DF8044BFFF746BF9C
:105B5C0010B582B04FF0000C1C460DF10603ADF8E9
:105B6C0006C0FFF713FFBDF90620B3EE096B9200D8
:105B7C0013B207EE103A9FED084BB8EEC77B9FEDC2
:105B8C00085B37EE447BA7EE056B84ED006B02B02F
:105B9C0010BD00BFAFF30080000000000070924009
:105BAC00B81E85EB51B8CE3F2DE9F04182B01D46B1
:105BBC00002304469DF820809DF824609DF82870F1
:105BCC00ADF80230ADF80430ADF806300DF102033B
:105BDC00FFF7DCFE4246294601AB2046FFF7D6FE16
:105BEC003A4631460DF106032046FFF7CFFEA36877
:105BFC002046D3F8C4309847BDF902309FED127B94
:105C0C0005EE103ABDF9043020EE070B06EE103A03
:105C1C00BDF90630B8EEC55B07EE103AB8EEC66BB0
:105C2C000B9BB8EEC77B85EE004B86EE005B87EED8
:105C3C00006B83ED004B0C9B83ED005B0D9B83EDA8
:105C4C00006B02B0BDE8F081CDCCCCCCCCCC1E40EE
:105C5C0038B5044615461A46FFF734FEA3682046AD
:105C6C00D3F89C309847294602462046FFF72AFE77
:105C7C0029462046BDE83840FFF758BEF8B5044623
:105C8C0016469DF81C701D469DF81820FFF71AFE4D
:105C9C003A4631462046FFF715FEA3682046D3F856
:105CAC009C309847294602462046FFF70BFE2946B2
:105CBC002046BDE8F840FFF739BE00BF30B583B0D1
:105CCC0084469DF81840012C14D0062C07D07CB1CA
:105CDC000A4A2146FFF710FF002003B030BD012413
:105CEC002546604601940095FFF7C8FF03B030BD10
:105CFC000125F6E700242546F3E700BF2006002027
:105D0C00022B38B514D8044615461A46FFF7DAFDAF
:105D1C00A3682046D3F89C30984729460246204673
:105D2C00FFF7D0FD29462046BDE83840FFF7FEBD01
:105D3C00024A1946FFF7E0FE002038BDDC1A0020AD
:105D4C0038B596469DF810509DF8142031B10129B4
:105D5C0008D0124AFFF7D0FE002038BDB2FA82F00C
:105D6C00400938BD022A01D1002038BD003A044652
:105D7C00714618BF0122FFF7A5FDA3682046D3F892
:105D8C009C309847294602462046FFF79BFD294642
:105D9C002046BDE83840FFF7C9BD00BFB81A002047
:105DAC0070B504461E460D4611460022FFF78AFDCB
:105DBC00204601223146FFF785FDA36820465B6D26
:105DCC00984700B970BDA36820469B689847E8B116
:105DDC0029462046FFF748FD01280FD0A36820462E
:105DEC00D3F89C309847294602462046FFF76AFDB7
:105DFC0029462046BDE87040FFF798BDA3682046B1
:105E0C00D3F8A83098470028E8D1ECE702490348BA
:105E1C00FDF7E4FBDCE700BF881A0020181800200F
:105E2C00032B70B502D90024204670BD15460E4ACE
:105E3C000446D65C1A46FFF745FDA3682046D3F806
:105E4C0094309847294602462046FFF73BFD2946E9
:105E5C002046FFF76BFD0346204631461C46FFF7F4
:105E6C00E9FD204670BD00BFC403002070B5044698
:105E7C0016461A460D46FFF725FDA3682046D3F8B3
:105E8C0094309847314602462046FFF71BFD2946C1
:105E9C002046BDE87040FFF749BD00BF70B5044611
:105EAC0016461A460D46FFF70DFDA3682046D3F89B
:105EBC0094309847314602462046FFF703FD2946A9
:105ECC002046BDE87040FFF731BD00BF70B502EB56
:105EDC00820615464268022B84B00446324456783A
:105EEC0030D0042B08D0012B2AD0174A1946FFF7C3
:105EFC0003FE002004B070BD01222046FFF7E2FC37
:105F0C00A3682046D3F89430984729460246204689
:105F1C00FFF7D8FC22688DF80C600023915D3244A9
:105F2C0020468DF80D1051788DF80E1003A9947839
:105F3C00042200938DF80F40FDF76CF904B070BD8E
:105F4C000322DAE70022D8E7A01A002070B50D462C
:105F5C004668114684B005EB8502044606EB020C3C
:105F6C009CF8016043B1012B06D0154A1946FFF786
:105F7C00C3FD002004B070BD1A462046FFF7A2FCFA
:105F8C00A3682046D3F89430984729460246204609
:105F9C00FFF798FC22688DF80C600023915D324469
:105FAC0020468DF80D1051788DF80E1003A99478B9
:105FBC00042200938DF80F40FDF72CF904B070BD4E
:105FCC00F41A002070B50D464668114684B005EBF6
:105FDC00850206EB020C9CF80160A3F1020C5FFA3F
:105FEC008CF2072A22D80446FFF76CFCA3682046E3
:105FFC00D3F894309847294602462046FFF762FCB6
:10600C0022688DF80C600023915D324420468DF897
:10601C000D1051788DF80E1003A99478042200937A
:10602C008DF80F40FDF7F6F804B070BD034A194621
:10603C00FFF762FD002004B070BD00BFF41A002011
:10604C002DE9F0419846836804460E46D3F8A430F7
:10605C001746984730B1A3682046D3F8B430984718
:10606C00054618B900252846BDE8F0813146204682
:10607C00FFF7FAFB0328F6D039462046FFF7F4FB6E
:10608C000128EFD141462046FFF7EEFBA0F10105B8
:10609C00B5FA85F56D09E6E7836810B5D3F8A0303D
:1060AC000446984730B1A3682046D3F8A830BDE821
:1060BC001040184710BD00BF08B5FFF7D5FB0038DE
:1060CC0018BF012008BD00BF10B5046886B00721B9
:1060DC00002394F807C00B228DF80C1003A98DF83F
:1060EC000DC094F808C08DF80EC094F809C08DF856
:1060FC000FC094F80AC08DF810C094F80BC08DF83E
:10610C0011C094F80CC08DF812C094F80DC08DF825
:10611C0013C094F80EC08DF814C094F80FC0247CF2
:10612C0000938DF815C08DF81640FDF773F806B086
:10613C0010BD00BF2DE9F041044617461D460E4622
:10614C00FFF792FB90B1002231462046FFF7BAFBD5
:10615C00A3682046D3F89C3098472946024620462F
:10616C00FFF7B0FB2046FFF7AFFFC0B10122394665
:10617C002046FFF7A7FBA3682046D3F89C3098472E
:10618C00294602462046FFF79DFB2046FFF79CFF61
:10619C0028B1A36820469B68BDE8F0411847002051
:1061AC00BDE8F08170B5044615460022FFF78AFB66
:1061BC00A3682046D3F89C309847294602462046CF
:1061CC00FFF780FB2046FFF77FFF28B1A36820462E
:1061DC009B68BDE87040184770BD00BFF8B5154608
:1061EC0001EB810442684FEA630E05EB8507064616
:1061FC00144402EB070CA278E4789CF8037022415B
:10620C009CF802403C4104EA63049CF804304EFACA
:10621C0003F3E4B21A40D2B2FFF754FB30462246E5
:10622C002946FFF74FFB0120F8BD00BF2DE9F04FC9
:10623C000D46044611461A462DED028B89B008EE28
:10624C00105A9DF860509DF8509001959DF864503F
:10625C009DF8586002959DF868509DF854A00395E0
:10626C009DF86C50BDF97CB004959DF87050BDF94B
:10627C00783005959DF874509DF85C700695BDF9C5
:10628C008450BDF9808000960795BDF98860BDF9F2
:10629C008C50FFF7A3FF494681465B465246204689
:1062AC00FFF79CFF09EA000943463A465FFA89F971
:1062BC0000992046FFF792FF00EA0907079B20464A
:1062CC00DDE90112FFF78AFF074033462046DDE97E
:1062DC000312FFF783FF2B4600EA07062046DDE991
:1062EC000512FFF77BFFA36806402046D3F89C30CD
:1062FC00984718EE101A02462046FFF7E3FA20469C
:10630C00FFF7E2FE304009B0BDEC028BBDE8F08F28
:10631C0010B502EB820301EB8101D0E9004211447C
:10632C001A4448788B78205C20EA030053789278E2
:10633C00E35C13405840FFF717FBBDE81040FFF734
:10634C001DBB00BFF8B504461F4615469DF8182026
:10635C000E46FFF7B7FA3A4629462046FFF7D8FF14
:10636C00294602462046FFF7ADFA31462046BDE8E5
:10637C00F840FFF7DBBA00BF10B50468207841B1D4
:10638C00012303F1010CE25C5FFA8CF3504099425B
:10639C00F7D2FFF7E9FABDE81040FFF7EFBA00BFFC
:1063AC0008B501EB8103D0E9002119444B788878BA
:1063BC00D35C23EA0000FFF7D7FABDE80840FFF7EB
:1063CC00E1BA00BF10B5D0E9004201EB81012346D0
:1063DC0004F10C0002EB010C13F8072F13F8011F4A
:1063EC00834282EA0102F9D1637BA17B03F07F0334
:1063FC00207C01F03F019CF802C04B40E17B20EA7D
:10640C000C005A4001F03F035A40D2B25040FFF703
:10641C00ABFABDE81040FFF7B1BA00BF08B5FFF703
:10642C0023FA003818BF012008BD00BF836810B5DF
:10643C0082B0D3F898300446019198470346204621
:10644C0001991C46FFF710FA201AB0FA80F04009A7
:10645C0002B010BD08B5FFF707FA003818BF0120CD
:10646C0008BD00BF08B5FFF7FFF9B0FA80F040098E
:10647C0008BD00BF032908B502D8044A505C08BD0A
:10648C00034AFFF739FB002008BD00BFC4030020FE
:10649C000406002000000000012970B508D0022974
:1064AC000DD049B1124AFFF727FB9FED0F0B70BDC2
:1064BC001146FFF7D9F990B9B7EE000B70BD054640
:1064CC001E461146FFF7D0F9044631462846FFF721
:1064DC00CBF9002CF0D010B1B1EE000B70BDB0EECA
:1064EC00000B70BDAFF30080000000000000000046
:1064FC00B81A00200000000010B51C462DED068BCC
:10650C00B0EE41ABB0EE429BD2B1012A9FED0E8BA7
:10651C009FED0F7B08FE078B20EE080B04F0E0F8D4
:10652C0020802AEE080B04F0DBF8089B29EE080B00
:10653C00188004F0D5F8099B1880BDEC068B10BDB3
:10654C009FED058BE8E700BFCDCCCCCCCCCC2E405E
:10655C00CDCCCCCCCCCC3E40CDCCCCCCCCCC1E40C1
:10656C00012970B509D002290C460ED019B1104A78
:10657C000024FFF7C1FA204670BD1146FFF774F9ED
:10658C00041E18BF0124204670BD05461E46114648
:10659C00FFF76AF9044631462846FFF765F9002CE7
:1065AC00E9D000280CBF01240224204670BD00BF96
:1065BC00B81A002000000000B3EE097B2DE9F04F63
:1065CC0030EE470B98460E46174604462DED0C8BC5
:1065DC009FED4F8BA1B0B0EE43CBB0EE449B80EE61
:1065EC00087B9DF8D8309DF800119DF804219DF88A
:1065FC00F0C01193B0EE45DB9DF80831B0EE46AB20
:10660C009DF8E850B0EE41BB9DF8E400B0EE428B33
:10661C001B911A929DF8E0109DF8DC201993CDF88F
:10662C005CC09DF8EC309DF8F4C09DF8F890CDF866
:10663C0060C09DF8FCA012921391159516931490BE
:10664C009FED350B37EE007BB5EE000B27EE000B04
:10665C0004F046F81B9905B22046DDE91932FFF724
:10666C007FFF1EA9A368B0EE4D2B01910DF17601B1
:10667C00B0EE4C1B02460091B0EE4B0BD3F8C0B001
:10668C0029461DAB19902046D8470DF17E00A36812
:10669C00B0EE4A2B01901FA8B0EE491B199A00903E
:1066AC00B0EE480B29462046D3F8C0500DF17A03C2
:1066BC00A8471498189903902046119C179A009497
:1066CC00BDF97E40169B0F94BDF9784007910E944E
:1066DC00BDF97C4013990D94BDF9764006920C944B
:1066EC00129ABDF97A40159D0593434602913146A5
:1066FC0001923A460B94BDF9744004950A94CDE985
:10670C00089AFFF793FD21B0BDEC0C8BBDE8F08F20
:10671C00B81E85EB51B8CE3F0000000000709240CF
:10672C002DE9F84300AF0446FFF79EF8A0F10C03E7
:10673C00DBB2022B02D9BD46BDE8F883257FE846C3
:10674C000E4AD4F80090D65CEB1D2A46494603F459
:10675C00FC73ADEB030D684600F03EFF301DAA1B29
:10676C000DEB06014844043A00F036FF2368002282
:10677C009A51C546BD46BDE8F88300BFB003002062
:10678C0030B583B005460191FEF73CFF04460199F4
:10679C002846FFF7C5FF204603B030BD30B583B0A7
:1067AC0005460191FEF74EFF044601992846FFF776
:1067BC00B7FF204603B030BDFEF7AEBF10B49DF856
:1067CC00044001949DF8084002949DF80C400394F9
:1067DC005DF8044BFFF702B910B582B04FF0000C16
:1067EC001C460DF10603ADF806C0FFF7CFF8BDF956
:1067FC000630B3EE095B07EE103A9FED096BB8EE6D
:10680C00C77B9FED094B37EE467B87EE046B36EE6C
:10681C00056B84ED006B02B010BD00BFAFF30080C0
:10682C00000000000068B0406666666666662E4032
:10683C002DE9F0472DED088B82B01D460023044650
:10684C009DF848A09DF84C809DF85090ADF8003014
:10685C00ADF80230ADF804306B469DF854609DF8ED
:10686C005870FFF793F8524629460DF10203204663
:10687C00FFF78CF84A46414601AB2046FFF786F8F5
:10688C00A3682046D3F8C43098470DF106033A4666
:10689C0031462046B0EE408BFEF73EFFBDF9063088
:1068AC0007EE103ABDF90030B8EEC77B9FED464BB2
:1068BC009FED475B9FED486B9FED499BA7EE045BFB
:1068CC009FED493B9FED4A1B9FED4B2B9FED4CAB36
:1068DC00A7EE031B03EE103ABDF90230A5EE076BD1
:1068EC0005EE103ABDF90430B8EEC33BA7EE02AB8F
:1068FC00B8EEC55BA6EE079B06EE103A179BB8EEFA
:10690C00C66B9FED410B9FED424B9FED43BB9FED43
:10691C00442B23EE099BA7EE0B2B89EE083B9FED36
:10692C00429BAAEE079B9FED42ABA1EE07AB9FEDFE
:10693C00421BA9EE071B9FED429BAAEE079B25EE7F
:10694C00015B26EE096B85EE081B86EE085B9FED5E
:10695C003E6B9FED3F8BA7EE006B9FED3F0BA6EEC2
:10696C00070B9FED3F6BA0EE076B31EE061B9FED07
:10697C003E6B81EE040BA7EE086B9FED3D1BA6EE64
:10698C00071B9FED3D6BA1EE076B35EE066B9FED84
:10699C003C5B86EE041BA2EE075B9FED3B6BA5EE0A
:1069AC00076B33EE063B83EE047B83ED007B189B79
:1069BC0083ED000B199B83ED001B02B0BDEC088B23
:1069CC00BDE8F087AFF300805E4BC7AA8BF8C53DDE
:1069DC009EAB9B02BEA4A1BE7D0ADBAA7F6B623F6D
:1069EC004617D6B8F7DF00C0BF7823B9CAEABC3D5A
:1069FC008DDC2B10360097BE8FFCE768EBDBC53DBA
:106A0C00241872185E8BA1BE73EB765A618CD4BDC0
:106A1C000000000000803D405D8E13CF52E6FCBDAF
:106A2C00CAD7F092A46FD93EB178CB84484E623F5E
:106A3C00D4716CA526AD573F0ABEFC5DBEDA00C012
:106A4C00A7B60EEDE7DDEEBF3552183512E4AC3EBD
:106A5C00EF87FA11EE1BC8BDD8E9BE9EDAD972BF1A
:106A6C007062C415824C1E4054C86815BE8CA73E7B
:106A7C003BEBB8B9AF0570BF33842EA46D772240C1
:106A8C00F70283097B919FBFB03AB4C0853B4A4063
:106A9C0030B515465A1E83B00C46062A05D8DFE8D9
:106AAC0002F01D040404211F0B000F4A1946FFF7C6
:106ABC0023F8002003B030BD0E2221460192009035
:106ACC00FEF700FF29460098019AFEF7FBFE2146CF
:106ADC00009803B0BDE83040FEF728BF0022ECE779
:106AEC000D22EAE70C22E8E72006002038B5134611
:106AFC00033AD2B2022A09D804460D46FEF7E2FE4A
:106B0C0029462046BDE83840FEF710BF024A194618
:106B1C00FEF7F2FF002038BDDC1A0020022BF8B57E
:106B2C0013D816460C4A04460D46D75C0B4AD25C69
:106B3C00FEF7C8FE314620463A46FEF7C3FE29460C
:106B4C002046BDE8F840FEF7F1BE054A1946FEF7AF
:106B5C00D3FF0020F8BD00BFC0030020BC03002001
:106B6C000C090020024908B5FEF766FF002008BD9D
:106B7C00A80C002038B504460D46FEF7A3FE2946A6
:106B8C002046BDE83840FEF7D1BE00BF38B50446FC
:106B9C000D46FEF797FE29462046BDE83840FEF725
:106BAC00C5BE00BF38B504460D46FEF78BFE294620
:106BBC002046BDE83840FEF7B9BE00BF022A10B52A
:106BCC00044682B015D0042A134606D00A4A194648
:106BDC00FEF792FF002002B010BD01222046019169
:106BEC00FEF770FE0199204602B0BDE81040FEF79A
:106BFC009DBE0022F2E700BFA01A002038B5134654
:106C0C000A3AD2B2032A09D804460D46FEF75AFEB8
:106C1C0029462046BDE83840FEF788BE024A194690
:106C2C00FEF76AFF002038BDF41A002008B5FEF705
:106C3C001BFE003818BF012008BD00BF8368D3F8C5
